{
  "contractName": "Fundraiser",
  "abi": [
    {
      "inputs": [],
      "name": "donate",
      "outputs": [],
      "stateMutability": "payable",
      "type": "function"
    },
    {
      "inputs": [
        {
          "internalType": "string",
          "name": "_name",
          "type": "string"
        },
        {
          "internalType": "string",
          "name": "_image",
          "type": "string"
        },
        {
          "internalType": "string",
          "name": "_description",
          "type": "string"
        },
        {
          "internalType": "uint256",
          "name": "_goalAmount",
          "type": "uint256"
        },
        {
          "internalType": "string",
          "name": "_facebookLink",
          "type": "string"
        },
        {
          "internalType": "string",
          "name": "_linkedinLink",
          "type": "string"
        },
        {
          "internalType": "string",
          "name": "_twitterLink",
          "type": "string"
        },
        {
          "internalType": "string",
          "name": "_videoLink",
          "type": "string"
        },
        {
          "internalType": "string",
          "name": "_campaignType",
          "type": "string"
        },
        {
          "internalType": "address payable",
          "name": "_beneficiary",
          "type": "address"
        },
        {
          "internalType": "address",
          "name": "_custodian",
          "type": "address"
        }
      ],
      "stateMutability": "nonpayable",
      "type": "constructor"
    },
    {
      "anonymous": false,
      "inputs": [
        {
          "indexed": true,
          "internalType": "address",
          "name": "donor",
          "type": "address"
        },
        {
          "indexed": false,
          "internalType": "uint256",
          "name": "value",
          "type": "uint256"
        }
      ],
      "name": "DonationReceived",
      "type": "event"
    },
    {
      "anonymous": false,
      "inputs": [
        {
          "indexed": true,
          "internalType": "address",
          "name": "previousOwner",
          "type": "address"
        },
        {
          "indexed": true,
          "internalType": "address",
          "name": "newOwner",
          "type": "address"
        }
      ],
      "name": "OwnershipTransferred",
      "type": "event"
    },
    {
      "inputs": [],
      "name": "renounceOwnership",
      "outputs": [],
      "stateMutability": "nonpayable",
      "type": "function"
    },
    {
      "inputs": [
        {
          "internalType": "address payable",
          "name": "_beneficiary",
          "type": "address"
        }
      ],
      "name": "setBeneficiary",
      "outputs": [],
      "stateMutability": "nonpayable",
      "type": "function"
    },
    {
      "inputs": [
        {
          "internalType": "address",
          "name": "newOwner",
          "type": "address"
        }
      ],
      "name": "transferOwnership",
      "outputs": [],
      "stateMutability": "nonpayable",
      "type": "function"
    },
    {
      "inputs": [],
      "name": "withdraw",
      "outputs": [],
      "stateMutability": "nonpayable",
      "type": "function"
    },
    {
      "anonymous": false,
      "inputs": [
        {
          "indexed": false,
          "internalType": "uint256",
          "name": "amount",
          "type": "uint256"
        }
      ],
      "name": "Withdraw",
      "type": "event"
    },
    {
      "stateMutability": "payable",
      "type": "fallback"
    },
    {
      "inputs": [
        {
          "internalType": "address",
          "name": "",
          "type": "address"
        },
        {
          "internalType": "uint256",
          "name": "",
          "type": "uint256"
        }
      ],
      "name": "_donations",
      "outputs": [
        {
          "internalType": "uint256",
          "name": "value",
          "type": "uint256"
        },
        {
          "internalType": "uint256",
          "name": "date",
          "type": "uint256"
        }
      ],
      "stateMutability": "view",
      "type": "function"
    },
    {
      "inputs": [],
      "name": "beneficiary",
      "outputs": [
        {
          "internalType": "address payable",
          "name": "",
          "type": "address"
        }
      ],
      "stateMutability": "view",
      "type": "function"
    },
    {
      "inputs": [],
      "name": "campaignType",
      "outputs": [
        {
          "internalType": "string",
          "name": "",
          "type": "string"
        }
      ],
      "stateMutability": "view",
      "type": "function"
    },
    {
      "inputs": [
        {
          "internalType": "uint256",
          "name": "index",
          "type": "uint256"
        }
      ],
      "name": "dataByIndex",
      "outputs": [
        {
          "components": [
            {
              "internalType": "uint256",
              "name": "Amount",
              "type": "uint256"
            },
            {
              "internalType": "address",
              "name": "Address",
              "type": "address"
            },
            {
              "internalType": "uint256",
              "name": "Date",
              "type": "uint256"
            }
          ],
          "internalType": "struct Fundraiser.Data",
          "name": "",
          "type": "tuple"
        }
      ],
      "stateMutability": "view",
      "type": "function"
    },
    {
      "inputs": [
        {
          "internalType": "uint256",
          "name": "",
          "type": "uint256"
        }
      ],
      "name": "datas",
      "outputs": [
        {
          "internalType": "uint256",
          "name": "Amount",
          "type": "uint256"
        },
        {
          "internalType": "address",
          "name": "Address",
          "type": "address"
        },
        {
          "internalType": "uint256",
          "name": "Date",
          "type": "uint256"
        }
      ],
      "stateMutability": "view",
      "type": "function"
    },
    {
      "inputs": [],
      "name": "description",
      "outputs": [
        {
          "internalType": "string",
          "name": "",
          "type": "string"
        }
      ],
      "stateMutability": "view",
      "type": "function"
    },
    {
      "inputs": [],
      "name": "donationsCount",
      "outputs": [
        {
          "internalType": "uint256",
          "name": "",
          "type": "uint256"
        }
      ],
      "stateMutability": "view",
      "type": "function"
    },
    {
      "inputs": [],
      "name": "facebookLink",
      "outputs": [
        {
          "internalType": "string",
          "name": "",
          "type": "string"
        }
      ],
      "stateMutability": "view",
      "type": "function"
    },
    {
      "inputs": [],
      "name": "getAllDonation",
      "outputs": [
        {
          "components": [
            {
              "internalType": "uint256",
              "name": "Amount",
              "type": "uint256"
            },
            {
              "internalType": "address",
              "name": "Address",
              "type": "address"
            },
            {
              "internalType": "uint256",
              "name": "Date",
              "type": "uint256"
            }
          ],
          "internalType": "struct Fundraiser.Data[]",
          "name": "",
          "type": "tuple[]"
        }
      ],
      "stateMutability": "view",
      "type": "function"
    },
    {
      "inputs": [],
      "name": "goalAmount",
      "outputs": [
        {
          "internalType": "uint256",
          "name": "",
          "type": "uint256"
        }
      ],
      "stateMutability": "view",
      "type": "function"
    },
    {
      "inputs": [],
      "name": "image",
      "outputs": [
        {
          "internalType": "string",
          "name": "",
          "type": "string"
        }
      ],
      "stateMutability": "view",
      "type": "function"
    },
    {
      "inputs": [],
      "name": "linkedinLink",
      "outputs": [
        {
          "internalType": "string",
          "name": "",
          "type": "string"
        }
      ],
      "stateMutability": "view",
      "type": "function"
    },
    {
      "inputs": [],
      "name": "myDonations",
      "outputs": [
        {
          "internalType": "uint256[]",
          "name": "values",
          "type": "uint256[]"
        },
        {
          "internalType": "uint256[]",
          "name": "dates",
          "type": "uint256[]"
        }
      ],
      "stateMutability": "view",
      "type": "function"
    },
    {
      "inputs": [],
      "name": "myDonationsCount",
      "outputs": [
        {
          "internalType": "uint256",
          "name": "",
          "type": "uint256"
        }
      ],
      "stateMutability": "view",
      "type": "function"
    },
    {
      "inputs": [],
      "name": "name",
      "outputs": [
        {
          "internalType": "string",
          "name": "",
          "type": "string"
        }
      ],
      "stateMutability": "view",
      "type": "function"
    },
    {
      "inputs": [
        {
          "internalType": "uint256",
          "name": "",
          "type": "uint256"
        }
      ],
      "name": "newdata",
      "outputs": [
        {
          "internalType": "uint256",
          "name": "Amount",
          "type": "uint256"
        },
        {
          "internalType": "address",
          "name": "Address",
          "type": "address"
        },
        {
          "internalType": "uint256",
          "name": "Date",
          "type": "uint256"
        }
      ],
      "stateMutability": "view",
      "type": "function"
    },
    {
      "inputs": [],
      "name": "owner",
      "outputs": [
        {
          "internalType": "address",
          "name": "",
          "type": "address"
        }
      ],
      "stateMutability": "view",
      "type": "function"
    },
    {
      "inputs": [],
      "name": "totalDonations",
      "outputs": [
        {
          "internalType": "uint256",
          "name": "",
          "type": "uint256"
        }
      ],
      "stateMutability": "view",
      "type": "function"
    },
    {
      "inputs": [],
      "name": "twitterLink",
      "outputs": [
        {
          "internalType": "string",
          "name": "",
          "type": "string"
        }
      ],
      "stateMutability": "view",
      "type": "function"
    },
    {
      "inputs": [],
      "name": "videoLink",
      "outputs": [
        {
          "internalType": "string",
          "name": "",
          "type": "string"
        }
      ],
      "stateMutability": "view",
      "type": "function"
    }
  ],
  "bytecode": "0x60806040523480156200001157600080fd5b50604051620025d7380380620025d7833981810160405281019062000037919062000495565b620000576200004b6200015160201b60201c565b6200015960201b60201c565b8a60049081620000689190620008db565b5089600590816200007a9190620008db565b5088600690816200008c9190620008db565b50876008819055508660099081620000a59190620008db565b5085600a9081620000b79190620008db565b5084600b9081620000c99190620008db565b5083600c9081620000db9190620008db565b5082600d9081620000ed9190620008db565b5081600760006101000a81548173ffffffffffffffffffffffffffffffffffffffff021916908373ffffffffffffffffffffffffffffffffffffffff16021790555062000140816200015960201b60201c565b5050505050505050505050620009c2565b600033905090565b60008060009054906101000a900473ffffffffffffffffffffffffffffffffffffffff169050816000806101000a81548173ffffffffffffffffffffffffffffffffffffffff021916908373ffffffffffffffffffffffffffffffffffffffff1602179055508173ffffffffffffffffffffffffffffffffffffffff168173ffffffffffffffffffffffffffffffffffffffff167f8be0079c531659141344cd1fd0a4f28419497f9722a3daafe3b4186f6b6457e060405160405180910390a35050565b6000604051905090565b600080fd5b600080fd5b600080fd5b600080fd5b6000601f19601f8301169050919050565b7f4e487b7100000000000000000000000000000000000000000000000000000000600052604160045260246000fd5b62000286826200023b565b810181811067ffffffffffffffff82111715620002a857620002a76200024c565b5b80604052505050565b6000620002bd6200021d565b9050620002cb82826200027b565b919050565b600067ffffffffffffffff821115620002ee57620002ed6200024c565b5b620002f9826200023b565b9050602081019050919050565b60005b838110156200032657808201518184015260208101905062000309565b60008484015250505050565b6000620003496200034384620002d0565b620002b1565b90508281526020810184848401111562000368576200036762000236565b5b6200037584828562000306565b509392505050565b600082601f83011262000395576200039462000231565b5b8151620003a784826020860162000332565b91505092915050565b6000819050919050565b620003c581620003b0565b8114620003d157600080fd5b50565b600081519050620003e581620003ba565b92915050565b600073ffffffffffffffffffffffffffffffffffffffff82169050919050565b60006200041882620003eb565b9050919050565b6200042a816200040b565b81146200043657600080fd5b50565b6000815190506200044a816200041f565b92915050565b60006200045d82620003eb565b9050919050565b6200046f8162000450565b81146200047b57600080fd5b50565b6000815190506200048f8162000464565b92915050565b60008060008060008060008060008060006101608c8e031215620004be57620004bd62000227565b5b60008c015167ffffffffffffffff811115620004df57620004de6200022c565b5b620004ed8e828f016200037d565b9b505060208c015167ffffffffffffffff8111156200051157620005106200022c565b5b6200051f8e828f016200037d565b9a505060408c015167ffffffffffffffff8111156200054357620005426200022c565b5b620005518e828f016200037d565b9950506060620005648e828f01620003d4565b98505060808c015167ffffffffffffffff8111156200058857620005876200022c565b5b620005968e828f016200037d565b97505060a08c015167ffffffffffffffff811115620005ba57620005b96200022c565b5b620005c88e828f016200037d565b96505060c08c015167ffffffffffffffff811115620005ec57620005eb6200022c565b5b620005fa8e828f016200037d565b95505060e08c015167ffffffffffffffff8111156200061e576200061d6200022c565b5b6200062c8e828f016200037d565b9450506101008c015167ffffffffffffffff8111156200065157620006506200022c565b5b6200065f8e828f016200037d565b935050610120620006738e828f0162000439565b925050610140620006878e828f016200047e565b9150509295989b509295989b9093969950565b600081519050919050565b7f4e487b7100000000000000000000000000000000000000000000000000000000600052602260045260246000fd5b60006002820490506001821680620006ed57607f821691505b602082108103620007035762000702620006a5565b5b50919050565b60008190508160005260206000209050919050565b60006020601f8301049050919050565b600082821b905092915050565b6000600883026200076d7fffffffffffffffffffffffffffffffffffffffffffffffffffffffffffffffff826200072e565b6200077986836200072e565b95508019841693508086168417925050509392505050565b6000819050919050565b6000620007bc620007b6620007b084620003b0565b62000791565b620003b0565b9050919050565b6000819050919050565b620007d8836200079b565b620007f0620007e782620007c3565b8484546200073b565b825550505050565b600090565b62000807620007f8565b62000814818484620007cd565b505050565b5b818110156200083c5762000830600082620007fd565b6001810190506200081a565b5050565b601f8211156200088b57620008558162000709565b62000860846200071e565b8101602085101562000870578190505b620008886200087f856200071e565b83018262000819565b50505b505050565b600082821c905092915050565b6000620008b06000198460080262000890565b1980831691505092915050565b6000620008cb83836200089d565b9150826002028217905092915050565b620008e6826200069a565b67ffffffffffffffff8111156200090257620009016200024c565b5b6200090e8254620006d4565b6200091b82828562000840565b600060209050601f8311600181146200095357600084156200093e578287015190505b6200094a8582620008bd565b865550620009ba565b601f198416620009638662000709565b60005b828110156200098d5784890151825560018201915060208501945060208101905062000966565b86831015620009ad5784890151620009a9601f8916826200089d565b8355505b6001600288020188555050505b505050505050565b611c0580620009d26000396000f3fe60806040526004361061016a5760003560e01c80637141a03b116100d15780638da5cb5b1161008a578063de2ed89311610064578063de2ed8931461054a578063ed88c68e14610575578063f2fde38b1461057f578063f3ccaac0146105a85761016b565b80638da5cb5b146104a2578063c0a094fd146104cd578063dc0661be1461050c5761016b565b80637141a03b146103b4578063715018a6146103df5780637284e416146103f657806373da56a714610421578063759dadce1461044c578063848604aa146104775761016b565b8063247ee20011610123578063247ee200146102b25780632636b945146102f157806338af3eed1461031c5780633ccfd60b146103475780634798f0f91461035e57806352e9a1a0146103895761016b565b80630180b97c1461019f57806306fdde03146101ca5780630c112203146101f55780631a57f7b4146102325780631c31f7101461025e5780631f522595146102875761016b565b5b61018034600e546105d390919063ffffffff16565b600e81905550600f6000815480929190610199906113ff565b91905055005b3480156101ab57600080fd5b506101b46105e9565b6040516101c19190611456565b60405180910390f35b3480156101d657600080fd5b506101df610633565b6040516101ec9190611501565b60405180910390f35b34801561020157600080fd5b5061021c60048036038101906102179190611554565b6106c1565b6040516102299190611613565b60405180910390f35b34801561023e57600080fd5b50610247610767565b6040516102559291906116dd565b60405180910390f35b34801561026a57600080fd5b5061028560048036038101906102809190611752565b6108dc565b005b34801561029357600080fd5b5061029c610928565b6040516102a99190611456565b60405180910390f35b3480156102be57600080fd5b506102d960048036038101906102d49190611554565b61092e565b6040516102e89392919061178e565b60405180910390f35b3480156102fd57600080fd5b50610306610988565b6040516103139190611456565b60405180910390f35b34801561032857600080fd5b5061033161098e565b60405161033e91906117d4565b60405180910390f35b34801561035357600080fd5b5061035c6109b4565b005b34801561036a57600080fd5b50610373610a64565b6040516103809190611501565b60405180910390f35b34801561039557600080fd5b5061039e610af2565b6040516103ab91906118e0565b60405180910390f35b3480156103c057600080fd5b506103c9610bbb565b6040516103d69190611501565b60405180910390f35b3480156103eb57600080fd5b506103f4610c49565b005b34801561040257600080fd5b5061040b610c5d565b6040516104189190611501565b60405180910390f35b34801561042d57600080fd5b50610436610ceb565b6040516104439190611501565b60405180910390f35b34801561045857600080fd5b50610461610d79565b60405161046e9190611501565b60405180910390f35b34801561048357600080fd5b5061048c610e07565b6040516104999190611501565b60405180910390f35b3480156104ae57600080fd5b506104b7610e95565b6040516104c49190611902565b60405180910390f35b3480156104d957600080fd5b506104f460048036038101906104ef9190611554565b610ebe565b6040516105039392919061178e565b60405180910390f35b34801561051857600080fd5b50610533600480360381019061052e9190611949565b610f18565b604051610541929190611989565b60405180910390f35b34801561055657600080fd5b5061055f610f59565b60405161056c9190611456565b60405180910390f35b61057d610f5f565b005b34801561058b57600080fd5b506105a660048036038101906105a191906119b2565b611134565b005b3480156105b457600080fd5b506105bd6111b7565b6040516105ca9190611501565b60405180910390f35b600081836105e191906119df565b905092915050565b6000600360003373ffffffffffffffffffffffffffffffffffffffff1673ffffffffffffffffffffffffffffffffffffffff16815260200190815260200160002080549050905090565b6004805461064090611a42565b80601f016020809104026020016040519081016040528092919081815260200182805461066c90611a42565b80156106b95780601f1061068e576101008083540402835291602001916106b9565b820191906000526020600020905b81548152906001019060200180831161069c57829003601f168201915b505050505081565b6106c961138f565b600182815481106106dd576106dc611a73565b5b9060005260206000209060030201604051806060016040529081600082015481526020016001820160009054906101000a900473ffffffffffffffffffffffffffffffffffffffff1673ffffffffffffffffffffffffffffffffffffffff1673ffffffffffffffffffffffffffffffffffffffff1681526020016002820154815250509050919050565b60608060006107746105e9565b90508067ffffffffffffffff8111156107905761078f611aa2565b5b6040519080825280602002602001820160405280156107be5781602001602082028036833780820191505090505b5092508067ffffffffffffffff8111156107db576107da611aa2565b5b6040519080825280602002602001820160405280156108095781602001602082028036833780820191505090505b50915060005b818110156108d6576000600360003373ffffffffffffffffffffffffffffffffffffffff1673ffffffffffffffffffffffffffffffffffffffff168152602001908152602001600020828154811061086a57610869611a73565b5b90600052602060002090600202019050806000015485838151811061089257610891611a73565b5b60200260200101818152505080600101548483815181106108b6576108b5611a73565b5b6020026020010181815250505080806108ce906113ff565b91505061080f565b50509091565b6108e4611245565b80600760006101000a81548173ffffffffffffffffffffffffffffffffffffffff021916908373ffffffffffffffffffffffffffffffffffffffff16021790555050565b600f5481565b6002818154811061093e57600080fd5b90600052602060002090600302016000915090508060000154908060010160009054906101000a900473ffffffffffffffffffffffffffffffffffffffff16908060020154905083565b60085481565b600760009054906101000a900473ffffffffffffffffffffffffffffffffffffffff1681565b6109bc611245565b6000479050600760009054906101000a900473ffffffffffffffffffffffffffffffffffffffff1673ffffffffffffffffffffffffffffffffffffffff166108fc829081150290604051600060405180830381858888f19350505050158015610a29573d6000803e3d6000fd5b507f5b6b431d4476a211bb7d41c20d1aab9ae2321deee0d20be3d9fc9b1093fa6e3d81604051610a599190611456565b60405180910390a150565b600c8054610a7190611a42565b80601f0160208091040260200160405190810160405280929190818152602001828054610a9d90611a42565b8015610aea5780601f10610abf57610100808354040283529160200191610aea565b820191906000526020600020905b815481529060010190602001808311610acd57829003601f168201915b505050505081565b60606001805480602002602001604051908101604052809291908181526020016000905b82821015610bb25783829060005260206000209060030201604051806060016040529081600082015481526020016001820160009054906101000a900473ffffffffffffffffffffffffffffffffffffffff1673ffffffffffffffffffffffffffffffffffffffff1673ffffffffffffffffffffffffffffffffffffffff16815260200160028201548152505081526020019060010190610b16565b50505050905090565b600b8054610bc890611a42565b80601f0160208091040260200160405190810160405280929190818152602001828054610bf490611a42565b8015610c415780601f10610c1657610100808354040283529160200191610c41565b820191906000526020600020905b815481529060010190602001808311610c2457829003601f168201915b505050505081565b610c51611245565b610c5b60006112c3565b565b60068054610c6a90611a42565b80601f0160208091040260200160405190810160405280929190818152602001828054610c9690611a42565b8015610ce35780601f10610cb857610100808354040283529160200191610ce3565b820191906000526020600020905b815481529060010190602001808311610cc657829003601f168201915b505050505081565b60098054610cf890611a42565b80601f0160208091040260200160405190810160405280929190818152602001828054610d2490611a42565b8015610d715780601f10610d4657610100808354040283529160200191610d71565b820191906000526020600020905b815481529060010190602001808311610d5457829003601f168201915b505050505081565b600d8054610d8690611a42565b80601f0160208091040260200160405190810160405280929190818152602001828054610db290611a42565b8015610dff5780601f10610dd457610100808354040283529160200191610dff565b820191906000526020600020905b815481529060010190602001808311610de257829003601f168201915b505050505081565b600a8054610e1490611a42565b80601f0160208091040260200160405190810160405280929190818152602001828054610e4090611a42565b8015610e8d5780601f10610e6257610100808354040283529160200191610e8d565b820191906000526020600020905b815481529060010190602001808311610e7057829003601f168201915b505050505081565b60008060009054906101000a900473ffffffffffffffffffffffffffffffffffffffff16905090565b60018181548110610ece57600080fd5b90600052602060002090600302016000915090508060000154908060010160009054906101000a900473ffffffffffffffffffffffffffffffffffffffff16908060020154905083565b60036020528160005260406000208181548110610f3457600080fd5b9060005260206000209060020201600091509150508060000154908060010154905082565b600e5481565b600160405180606001604052803481526020013373ffffffffffffffffffffffffffffffffffffffff1681526020014281525090806001815401808255809150506001900390600052602060002090600302016000909190919091506000820151816000015560208201518160010160006101000a81548173ffffffffffffffffffffffffffffffffffffffff021916908373ffffffffffffffffffffffffffffffffffffffff16021790555060408201518160020155505060006040518060400160405280348152602001428152509050600360003373ffffffffffffffffffffffffffffffffffffffff1673ffffffffffffffffffffffffffffffffffffffff168152602001908152602001600020819080600181540180825580915050600190039060005260206000209060020201600090919091909150600082015181600001556020820151816001015550506110c534600e546105d390919063ffffffff16565b600e81905550600f60008154809291906110de906113ff565b91905055503373ffffffffffffffffffffffffffffffffffffffff167f264f630d9efa0d07053a31163641d9fcc0adafc9d9e76f1c37c2ce3a558d2c52346040516111299190611456565b60405180910390a250565b61113c611245565b600073ffffffffffffffffffffffffffffffffffffffff168173ffffffffffffffffffffffffffffffffffffffff16036111ab576040517f08c379a00000000000000000000000000000000000000000000000000000000081526004016111a290611b43565b60405180910390fd5b6111b4816112c3565b50565b600580546111c490611a42565b80601f01602080910402602001604051908101604052809291908181526020018280546111f090611a42565b801561123d5780601f106112125761010080835404028352916020019161123d565b820191906000526020600020905b81548152906001019060200180831161122057829003601f168201915b505050505081565b61124d611387565b73ffffffffffffffffffffffffffffffffffffffff1661126b610e95565b73ffffffffffffffffffffffffffffffffffffffff16146112c1576040517f08c379a00000000000000000000000000000000000000000000000000000000081526004016112b890611baf565b60405180910390fd5b565b60008060009054906101000a900473ffffffffffffffffffffffffffffffffffffffff169050816000806101000a81548173ffffffffffffffffffffffffffffffffffffffff021916908373ffffffffffffffffffffffffffffffffffffffff1602179055508173ffffffffffffffffffffffffffffffffffffffff168173ffffffffffffffffffffffffffffffffffffffff167f8be0079c531659141344cd1fd0a4f28419497f9722a3daafe3b4186f6b6457e060405160405180910390a35050565b600033905090565b604051806060016040528060008152602001600073ffffffffffffffffffffffffffffffffffffffff168152602001600081525090565b7f4e487b7100000000000000000000000000000000000000000000000000000000600052601160045260246000fd5b6000819050919050565b600061140a826113f5565b91507fffffffffffffffffffffffffffffffffffffffffffffffffffffffffffffffff820361143c5761143b6113c6565b5b600182019050919050565b611450816113f5565b82525050565b600060208201905061146b6000830184611447565b92915050565b600081519050919050565b600082825260208201905092915050565b60005b838110156114ab578082015181840152602081019050611490565b60008484015250505050565b6000601f19601f8301169050919050565b60006114d382611471565b6114dd818561147c565b93506114ed81856020860161148d565b6114f6816114b7565b840191505092915050565b6000602082019050818103600083015261151b81846114c8565b905092915050565b600080fd5b611531816113f5565b811461153c57600080fd5b50565b60008135905061154e81611528565b92915050565b60006020828403121561156a57611569611523565b5b60006115788482850161153f565b91505092915050565b61158a816113f5565b82525050565b600073ffffffffffffffffffffffffffffffffffffffff82169050919050565b60006115bb82611590565b9050919050565b6115cb816115b0565b82525050565b6060820160008201516115e76000850182611581565b5060208201516115fa60208501826115c2565b50604082015161160d6040850182611581565b50505050565b600060608201905061162860008301846115d1565b92915050565b600081519050919050565b600082825260208201905092915050565b6000819050602082019050919050565b60006116668383611581565b60208301905092915050565b6000602082019050919050565b600061168a8261162e565b6116948185611639565b935061169f8361164a565b8060005b838110156116d05781516116b7888261165a565b97506116c283611672565b9250506001810190506116a3565b5085935050505092915050565b600060408201905081810360008301526116f7818561167f565b9050818103602083015261170b818461167f565b90509392505050565b600061171f82611590565b9050919050565b61172f81611714565b811461173a57600080fd5b50565b60008135905061174c81611726565b92915050565b60006020828403121561176857611767611523565b5b60006117768482850161173d565b91505092915050565b611788816115b0565b82525050565b60006060820190506117a36000830186611447565b6117b0602083018561177f565b6117bd6040830184611447565b949350505050565b6117ce81611714565b82525050565b60006020820190506117e960008301846117c5565b92915050565b600081519050919050565b600082825260208201905092915050565b6000819050602082019050919050565b6060820160008201516118316000850182611581565b50602082015161184460208501826115c2565b5060408201516118576040850182611581565b50505050565b6000611869838361181b565b60608301905092915050565b6000602082019050919050565b600061188d826117ef565b61189781856117fa565b93506118a28361180b565b8060005b838110156118d35781516118ba888261185d565b97506118c583611875565b9250506001810190506118a6565b5085935050505092915050565b600060208201905081810360008301526118fa8184611882565b905092915050565b6000602082019050611917600083018461177f565b92915050565b611926816115b0565b811461193157600080fd5b50565b6000813590506119438161191d565b92915050565b600080604083850312156119605761195f611523565b5b600061196e85828601611934565b925050602061197f8582860161153f565b9150509250929050565b600060408201905061199e6000830185611447565b6119ab6020830184611447565b9392505050565b6000602082840312156119c8576119c7611523565b5b60006119d684828501611934565b91505092915050565b60006119ea826113f5565b91506119f5836113f5565b9250828201905080821115611a0d57611a0c6113c6565b5b92915050565b7f4e487b7100000000000000000000000000000000000000000000000000000000600052602260045260246000fd5b60006002820490506001821680611a5a57607f821691505b602082108103611a6d57611a6c611a13565b5b50919050565b7f4e487b7100000000000000000000000000000000000000000000000000000000600052603260045260246000fd5b7f4e487b7100000000000000000000000000000000000000000000000000000000600052604160045260246000fd5b7f4f776e61626c653a206e6577206f776e657220697320746865207a65726f206160008201527f6464726573730000000000000000000000000000000000000000000000000000602082015250565b6000611b2d60268361147c565b9150611b3882611ad1565b604082019050919050565b60006020820190508181036000830152611b5c81611b20565b9050919050565b7f4f776e61626c653a2063616c6c6572206973206e6f7420746865206f776e6572600082015250565b6000611b9960208361147c565b9150611ba482611b63565b602082019050919050565b60006020820190508181036000830152611bc881611b8c565b905091905056fea26469706673582212209aa1b926c9e77b7d9e2909071565b20d122e3e2099783a2a932246c7f8986fe364736f6c63430008110033",
  "immutableReferences": {},
  "source": "// SPDX-License-Identifier: MIT\r\npragma solidity ^0.8.0;\r\n \r\n\r\nimport '@openzeppelin/contracts/access/Ownable.sol';\r\nimport '@openzeppelin/contracts/utils/math/SafeMath.sol';\r\n\r\ncontract Fundraiser is Ownable {\r\n  using SafeMath for uint256;\r\n\r\n  struct Donation {\r\n    uint256 value;\r\n    uint256 date;\r\n  }\r\n  struct Data{\r\n      uint Amount;\r\n      address Address;\r\n      uint Date;\r\n  }\r\n  Data[] public datas;\r\n  Data[] public newdata;\r\n\r\n  mapping(address => Donation[]) public _donations;\r\n\r\n  event DonationReceived(address indexed donor, uint256 value);\r\n  event Withdraw(uint256 amount);\r\n\r\n  string public name;\r\n  string public image;\r\n  string public description;\r\n  address payable public beneficiary;\r\n  uint256 public goalAmount;\r\n  string public facebookLink;\r\n  string public linkedinLink;\r\n  string public twitterLink;\r\n  string public videoLink;\r\n  string public campaignType;\r\n  uint256 public totalDonations;\r\n  uint256 public donationsCount;\r\n\r\n  constructor(\r\n    string memory _name,\r\n    string memory _image,\r\n    string memory _description,\r\n    uint256 _goalAmount,\r\n    string memory _facebookLink,\r\n    string memory _linkedinLink,\r\n    string memory _twitterLink,\r\n    string memory _videoLink,\r\n    string memory _campaignType,\r\n    address payable _beneficiary,\r\n    address _custodian\r\n  ) public {\r\n    name = _name;\r\n    image = _image;\r\n    description = _description;\r\n    goalAmount = _goalAmount;\r\n    facebookLink =_facebookLink;\r\n    linkedinLink =_linkedinLink;\r\n    twitterLink = _twitterLink;\r\n    videoLink = _videoLink;\r\n    campaignType = _campaignType;\r\n    beneficiary = _beneficiary;\r\n    _transferOwnership(_custodian);\r\n  }\r\n\r\n  function setBeneficiary(address payable _beneficiary) public onlyOwner {\r\n    beneficiary = _beneficiary;\r\n  }\r\n\r\n  function myDonationsCount() public view returns (uint256) {\r\n    return _donations[msg.sender].length;\r\n  }\r\n  \r\n  //----------------------------------------------------------------------------------------------------------------\r\n  function getAllDonation() public view returns(Data[] memory){\r\n       \r\n       return datas;\r\n      \r\n  }\r\n\r\n  function dataByIndex(uint index) public view returns(Data memory){\r\n      return datas[index];\r\n  }\r\n\r\n//   function allData() public view returns(Data[] memory ){\r\n//     //   for(uint i =0; i<datas.length; i++){  \r\n//     //        return (datas[i].Amount,datas[i].Address,datas[i].Date);\r\n//     //    }\r\n   \r\n//     Data[] memory id = new Data[](datas.length);\r\n// for (uint i = 0; i < datas.length; i++) {\r\n// Data storage member = datas[i];\r\n// id[i] = member;\r\n// }\r\n// return id;\r\n\r\n//     }\r\n   \r\n  //---------------------------------------------------------------------------------------------------------------\r\n\r\n  function donate() public payable {\r\n    datas.push(Data({Amount:msg.value, Address:msg.sender, Date:block.timestamp}));\r\n    Donation memory donation = Donation({\r\n      value: msg.value,\r\n      date: block.timestamp\r\n    });\r\n    _donations[msg.sender].push(donation);\r\n    totalDonations = totalDonations.add(msg.value);\r\n    donationsCount++;\r\n\r\n    emit DonationReceived(msg.sender, msg.value);\r\n  }\r\n\r\n  function myDonations() public view returns (\r\n      uint256[] memory values,\r\n      uint256[] memory dates\r\n  )\r\n\r\n  {\r\n    uint256 count = myDonationsCount();\r\n    values = new uint256[](count);\r\n    dates = new uint256[](count);\r\n    for (uint256 i = 0; i < count; i++) {\r\n        Donation storage donation = _donations[msg.sender][i];\r\n        values[i] = donation.value;\r\n        dates[i] = donation.date;\r\n    }\r\n    return (values, dates);\r\n  }\r\n\r\n  function withdraw() public onlyOwner {\r\n      uint256 balance = address(this).balance;\r\n      beneficiary.transfer(balance);\r\n      emit Withdraw(balance);\r\n  }\r\n\r\n  fallback() external payable {\r\n      totalDonations = totalDonations.add(msg.value);\r\n      donationsCount++;\r\n  }\r\n\r\n}",
  "sourcePath": "D:\\charity_dapp\\contracts\\FundRaiser.sol",
  "compiler": {
    "name": "solc",
    "version": "0.8.17+commit.8df45f5f.Emscripten.clang"
  },
  "schemaVersion": "3.4.11",
  "updatedAt": "2022-12-23T10:51:28.738Z",
  "devdoc": {
    "kind": "dev",
    "methods": {
      "owner()": {
        "details": "Returns the address of the current owner."
      },
      "renounceOwnership()": {
        "details": "Leaves the contract without owner. It will not be possible to call `onlyOwner` functions anymore. Can only be called by the current owner. NOTE: Renouncing ownership will leave the contract without an owner, thereby removing any functionality that is only available to the owner."
      },
      "transferOwnership(address)": {
        "details": "Transfers ownership of the contract to a new account (`newOwner`). Can only be called by the current owner."
      }
    },
    "version": 1
  },
  "userdoc": {
    "kind": "user",
    "methods": {},
    "version": 1
  }
}